{
  "_format": "hh-sol-artifact-1",
  "contractName": "PollVoting",
  "sourceName": "contracts/PollVoting.sol",
  "abi": [
    {
      "inputs": [],
      "stateMutability": "nonpayable",
      "type": "constructor"
    },
    {
      "anonymous": false,
      "inputs": [
        {
          "indexed": true,
          "internalType": "bytes32",
          "name": "voteHash",
          "type": "bytes32"
        }
      ],
      "name": "VoteRecorded",
      "type": "event"
    },
    {
      "inputs": [
        {
          "internalType": "bytes32",
          "name": "voteHash",
          "type": "bytes32"
        }
      ],
      "name": "hasVoted",
      "outputs": [
        {
          "internalType": "bool",
          "name": "",
          "type": "bool"
        }
      ],
      "stateMutability": "view",
      "type": "function"
    },
    {
      "inputs": [],
      "name": "owner",
      "outputs": [
        {
          "internalType": "address",
          "name": "",
          "type": "address"
        }
      ],
      "stateMutability": "view",
      "type": "function"
    },
    {
      "inputs": [
        {
          "internalType": "bytes32",
          "name": "voteHash",
          "type": "bytes32"
        }
      ],
      "name": "recordVote",
      "outputs": [],
      "stateMutability": "nonpayable",
      "type": "function"
    }
  ],
  "bytecode": "0x608060405234801561001057600080fd5b50336000806101000a81548173ffffffffffffffffffffffffffffffffffffffff021916908373ffffffffffffffffffffffffffffffffffffffff160217905550610461806100606000396000f3fe608060405234801561001057600080fd5b50600436106100415760003560e01c80631b4613cb146100465780638da5cb5b14610076578063eed5025614610094575b600080fd5b610060600480360381019061005b9190610283565b6100b0565b60405161006d91906102cb565b60405180910390f35b61007e6100da565b60405161008b9190610327565b60405180910390f35b6100ae60048036038101906100a99190610283565b6100fe565b005b60006001600083815260200190815260200160002060009054906101000a900460ff169050919050565b60008054906101000a900473ffffffffffffffffffffffffffffffffffffffff1681565b60008054906101000a900473ffffffffffffffffffffffffffffffffffffffff1673ffffffffffffffffffffffffffffffffffffffff163373ffffffffffffffffffffffffffffffffffffffff161461018c576040517f08c379a00000000000000000000000000000000000000000000000000000000081526004016101839061039f565b60405180910390fd5b6001600082815260200190815260200160002060009054906101000a900460ff16156101ed576040517f08c379a00000000000000000000000000000000000000000000000000000000081526004016101e49061040b565b60405180910390fd5b600180600083815260200190815260200160002060006101000a81548160ff021916908315150217905550807ff3598f0a5decfa929572c0107b2b34ac600b16d530ea9361545a4daf10b7744660405160405180910390a250565b600080fd5b6000819050919050565b6102608161024d565b811461026b57600080fd5b50565b60008135905061027d81610257565b92915050565b60006020828403121561029957610298610248565b5b60006102a78482850161026e565b91505092915050565b60008115159050919050565b6102c5816102b0565b82525050565b60006020820190506102e060008301846102bc565b92915050565b600073ffffffffffffffffffffffffffffffffffffffff82169050919050565b6000610311826102e6565b9050919050565b61032181610306565b82525050565b600060208201905061033c6000830184610318565b92915050565b600082825260208201905092915050565b7f4e6f7420617574686f7269736564000000000000000000000000000000000000600082015250565b6000610389600e83610342565b915061039482610353565b602082019050919050565b600060208201905081810360008301526103b88161037c565b9050919050565b7f566f746520616c7265616479207265636f726465640000000000000000000000600082015250565b60006103f5601583610342565b9150610400826103bf565b602082019050919050565b60006020820190508181036000830152610424816103e8565b905091905056fea26469706673582212205a9abb1e2a09f9d56a285e75018c48a459584eb859fafe8e8892615322a3994964736f6c63430008180033",
  "linkReferences": {},
  "deployedLinkReferences": {}
}